:400000000080002011000000E9000000E900000008B5054B1A6803F53F5302331A6000F02BFA00F063F800BFFA46004010B5054C237833B9044B13B10448AFF30080012394
:40004000237010BD2881FF1F000000004022000008B5064B1BB106480649AFF300800648036813B1054B03B1984708BD00000000402200002C81FF1F0881FF1F0000000065
:4000800008B500F01DFD0A2000F018FE00F0C0FC0F4800F0ABFC62B60E4B0F4C1B7813F0010F10D00D4B00251D7000F07BFC0C4800F019FC0120294600F082FC094800F054
:4000C00012FC402300E08023237000F091FBFEE7AD0C000069640040FA4600407B6500404422000055220000FEE7000008B51249124B4A1C1AD053F8106C53F80C0C53F8B6
:40010000085C0022AA4200EB020403D0B45884500432F7E753F8040C0022824203D00025A5500432F9E710330139E2E702F04CF8FFF7A6FFFEE700BF00000000C0260000B0
:4001400008B5114A114B1A609A6842F400729A600023032B98BF0E4A4FEA830094BF52F823100C490C4A0133302B1150F1D10B4B19780B4B19700B4B1A6000F017F80A4B1A
:4001800000221A6008BD00BF0004FA050CED00E000000000E90000000080FF1FBC7600400481FF1F08ED00E00081FF1FF8B572B66A4B61221A70A3F5F0634FF4E1521A80A1
:4001C000192541F61F429D709A8003229D711A81634A182340F65401137051801371614B06221A705222A3F580731A705E4B00241A785E4BD2B21A7040F61802A3F27F4345
:400200001A8041F2512223F8022C594B4FF4F0701B7803F0010343EA440400F061FC013D04F003041BD0032CEFD1524B4FF480721A8007221A70504A0024482114709170C4
:4002400002221C705C7103F8032C93F89E2342F00F0283F89E23012283F8FC2700E0FEE7464B0021234418689A88063401F0DBFF2A2CF5D100231946414C00221859803454
:4002800020F0FF06C0B2450004EB4104AA4208D004EB020CA75C9CF801C0023207F806C0F4E70433802B0144E6D1364B364C1A7842F002021A701A7C42F002021A74334A47
:4002C000137843F040031370314B197841F010011970304B186859681D4603C455F80A0F1989B83424F8B81C696803C429891D4655F8140F21806968283403C429891D4611
:4003000055F81E0F21806968B83C03C429891D4655F8280F21806968083403C429891E48218053F8321FA4F6A854016059681B4B4160197841F008011970194B19491B7847
:40034000DBB203F007001B0908704B70164B442119700FCA07C42380F8BD00BF004800408A400040004300400F010049A146004025420040044000400640004068220000C5
:40038000942200000350014000510040A0430040C24300400C2500006251004022430040CF0100496E58004076580040004710B500232AB1013A4418A45C2344DBB2F8E790
:4003C000184610BD0138092842D8DFE800F0050B11171D232F29353B0902C1F57F3101F570713BE00902C1F57F3101F2C13138E00902C1F57F3101F2C5312AE00902C1F561
:400400007F3101F2C9312CE00902C1F57F3101F5747123E00902C1F57F3101F2D1311DE00902C1F57F3101F2D63112E00902C1F57F3101F2D2310CE00902C1F57F3101F54A
:40044000757106E00902C1F57F3101F5767108E000210B78487843EA002070470878C0B270470B784A788878000440EA02201843CB7840EA0360704710B50B4B1A7802F053
:40048000C002802A0ED100241C7002202146FFF799FF38B121460220FFF794FFBDE81040FFF784BF10BD00BFFA460040F8B5044621460320FFF786FF214607460420FFF72B
:4004C00081FF013700EB072721460320FFF77AFF0025013003022E46BB4209D213F8012B511EC9B2FD29154498BF0126EDB2F3E701202146FFF766FF6D42EDB2854204D127
:40050000002E14BF00200620F8BD0620F8BD000080B5ADF51A7D00F0F7FA10B1002000F0C3FB00F0F9FC62B600273D4604A84FF4967101AAFF2300F01FFD0028F6D1BDF8EC
:400540000420062A40F248819DF81030012B40F043819DF812309DF8134043EA042404F1070E04AB234496455E79197900F232819B79172B40F03081231D9BB233B10DF174
:400580000F02D25C013B104480B2F6E7404241EA062380B2834240F021819DF811309DF81460313B0A2B00F2E780DFE813F00B001B00E500E500E500E500800091003F0011
:4005C000A000D600002F00F00781002C40F004812046FFF76BFFD0F1010038BF00208DF81400B8E0002F00F0F780012C40F0F480032E00F2F1807A4B1B681B68C3F3074268
:40060000964202D1C3F3072303E08CBF00234FF480738DF814301B0A8DF815300024FF238DF816308DF817400421A7E0002F00F0D380022C40F2D080033C4FA828440DF195
:400640001701224601F0E6FDA6F1400325443F2BADB203D800F002FB102301E04FF480739D4240F084809DF816109DF815303F2E43EA01210ED85A4B01EB06221B6892B23E
:400680001B68C3F30F2013F0FF0F1CBF013080B282426ED32B464FAA304600F07DFA00280CBF00240A24002500F024FB65E0002F00F092802E19B6F5967F00F28B804FA84D
:4006C0002844224605A901F0A5FDB5B2002454E0002C40F08180434A02AB92E8030005AA83E8030082E803000127082146E0002F72D0032C70D19DF815309DF8168043EAFE
:400700000828A6F140033F2B07D837484FEA08111022FFF74CFE044619E008EB0621002009024FF48072FFF742FE032E04460ED1B8F1FF0F0BD100210520FFF743FE201A8C
:40074000C4B200210620FFF73DFE201AC4B264428DF814400024012110E00020FFF7A6FE10B9224B80221A7000F0A0FA34E0002530E000250A2400E00524002101238DF811
:40078000103000220B1DADF806108DF811408DF812108DF813209BB20DF10F00C05C013B02449BB292B2002BF6D1524205AB92B25A540DF11503120A5A540DF116031722DE
:4007C0005A54073104A889B20DF10602962300F0B2FBABE60324D0E70424CEE70824CCE70C81FF1F4825000000800040FA46004070B50020FFF75AFE144D00282B684FF05F
:4008000000001C68014622460CBF00260626FFF7CEFD6B681B78181A00F0FF00984200D114B9002000F040FA094B1A7802F0C002402A1A4600D01EB100231370FFF768FE59
:4008400080221A70BDE8704000F030BA0C81FF1FFA46004010B50B4C237803F09F032370237803F0F0032370237843F0100318432070012000F036FA237803F0EF032370DF
:4008800010BD00BF7864004010B50D4C237843F020032370237803F0BF032370237803F0F0032370237843F0100318432070012000F018FA237803F0EF03237010BD00BF69
:4008C0007864004010B504460009FFF7DDFF642000F008FA04F00F00FFF7D6FFBDE81040962000F0FFB938B505460078012428B1FFF7E8FF285D0134E4B2F8E738BD10B5E7
:4009000004460009FFF7A6FF642000F0EBF904F00F00FFF79FFFBDE8104040F6C41000F0E1B908B5282000F0C9F90320FFF792FF052000F0C3F90320FFF78CFF0F2000F05C
:40094000BDF90320FFF786FF012000F0B7F90220FFF780FF052000F0B1F90620FFF7CFFF0E20FFF7CCFF2C20FFF7C9FF0820FFF7C6FF0120FFF7C3FF0C20FFF7C0FF032069
:40098000FFF7BDFFBDE80840052000F097B9000008B50C20FFF7B3FF014B01221A7008BD4481FF1F10B5054C63781BB9FFF7B9FF01236370BDE81040FFF7EABF4481FF1F20
:4009C000032811D8DFE800F00205080B81F0800008E0A1F1400004E0A1F16C0001E0A1F12C00C0B2FFF78BBF70470000064A0423136002F688321268E0219064034A1170A4
:400A0000A2F202321360704780E100E002E400E0014B04221A60704780E200E01E4B1A78A3F65D3342F0020283F85D2B93F85F2B02F08F0242F0300283F85F2B93F8682B5C
:400A400002F0CF0283F8682B93F8682B42F0300283F8682B93F8682B02F0F00283F8682B93F8682B42F00F0283F8682B4FF6FF72A3F8612B0122A3F8632B002283F8602B45
:400A80001A7842F001021A7093F85E2B42F0010283F85E2B704700BF004F0040074B1A7842F001021A701A7C42F001021A7493F85D2B42F0010283F85D2B7047A34300406F
:400AC00010B5054C23781BB9FFF7A8FF01232370BDE81040FFF7E2BF4681FF1F000000000230800800F0058000BF013800467FF4FCAF7047EFF3108072B6704780F310880E
:400B0000704700BFAFF3008038B500F02DF900F0B5F9002838D100F0EBF9072804460FD11B4B1A78900703D4012000F0DBF8F7E71A78910704D51B789B0814BF072400249B
:400B400000F0BCF90CBB00F00FF900F097F9D8B9012000F079F9072805D04FF0FF3410E02B789B07F9D40B48022100F00FF90228074DF5D12B789A0703D4012000F0B2F87D
:400B8000F8E700F09BF900E00424204638BD00BF224700405481FF1F4128F8B505460E4617461C460AD8411F3A298CBF002101213F2804D8B6F5807F29D805E00121812EC9
:400BC00028BF0121102C22D10FB301BB00F056F9F8B92346284631463A4600F0F1F80728044611D11B4B1A781F4612F0020F03D1012000F077F8F5E71A78900702D51B781A
:400C00009B0808D04FF0FF3400F058F91FE001241DE004241BE0104B28461A7831465B7800F0F2F807280446EED13A78094B910703D4012000F056F8F7E71A789207E1D5F8
:400C40001B789B080CBF00246FF00004DCE72046F8BD00BF224700405481FF1F08B5FFF749FF0F4B1A780C3342F0080203F80C2C1A7942F008021A71C82283F855231A7855
:400C800042F010021A701A7C42F010021A74054B1B789B06FBD5BDE80840FFF72FBF00BFA04300400047004001BE7047024B1A7842F001021A707047F646004010B504461A
:400CC000B4F5004F064B05D91868FFF709FFA4F50044F5E758686043BDE81040FFF700BF1481FF1F024B1B7A5843FFF7F9BE00BF1481FF1F08B5FFF7FDFE00BF00BF00BF4F
:400D000000BF00BF00BF00BF00BF00BF00BF00BF00BF00BF00BF00BF00BF064B1A8892B242F004021A801B88BFF36F8FBDE80840FFF7E4BE00480040054B00F01F001B68B5
:400D400000F1100253F8220043F82210704700BF08ED00E000F01F0000F16040490100F56440C9B20170704708B5FFF7C3FE064B1A7842F008021A701A7C42F008021A74A8
:400D8000BDE80840FFF7BABEA043004070B506460D460024E3B2AB420CD2074B1B78DB0703D40120FFF79EFFF7E7044B1B7833550134EFE7284670BD2247004020470040DD
:400DC00030B50F490C78A40716D50E4CB6252570D5252570022525700D7805F0020505F0FF015DB9207088B2984203D2505C01312070F8E7072030BD042030BD092030BDFA
:400E0000224700402047004070B50D4D2C78A60712D50C4CB6262670D8262670052626702D78AD070AD42070080AC9B22070217022702370072070BD042070BD092070BDF7
:400E400022470040204700400A4A137899070CD5094BB6211970E12119700E2119701278920704D4187007207047042070470920704700BF224700402047004038B5FFF7BD
:400E800039FE0C4B197879B901250B4A1D7014682C400AD0146824F00104146000BF00BF00BF5D600C4600E00424FFF727FE204638BD00BF4881FF1F0400084010B5FFF797
:400EC00019FE094B002259681A70012908D107490C6844F001040C6000BF00BF00BF5A60BDE81040FFF70ABE4881FF1F04000840074B1B789B0708D5064BB6221A70E022B8
:400F00001A700D221A70072070470420704700BF224700402047004008B562B60020022100F04EF9014B01221A7008BD5081FF1F012000F0F1B9F8B507460E46154603EB58
:400F400083030220394640225C0000F0A7F9022000F086F930B92CB10120013CFFF7AEFEA4B2F4E7022000F07BF910B12E800020F8BD1020F8BD00002DE9F84303EB830300
:400F80005C00234B16461A7880460F469946AAB1254600F053F930B92DB10120013DFFF78DFEADB2F5E700F049F9A8B100F04CF9FFF7BEFF002389F800300DE000F044F93A
:400FC00050B100F03BF938B1FFF7B2FF04E054B1FFF774FE013CA4B2012000F041F901284FF00100F3D100F03BF901280AD14146402F34BF3A46402200F0A4F93080002090
:40100000BDE8F883002333801020BDE8F88300BF5081FF1FF8B5FFF76DFD394B01251A78022642F001021A701A7C364C42F001021A7403F5E75318331D7003F8946C13F8A1
:401040008D2C074602F07F0203F88D2C0020FFF749FE2378284603F0F90323702A4B1A7802F0DF021A7023782B432370FFF73AFE2820FFF737FE254B30461A7802F07F02CF
:401080001A701A7802F0BF021A70237833432370FFF728FE2378384643F0040323701C4B00241C705C70FFF729FD1A491720FFF743FE17200721FFF74DFE17491520FFF736
:4010C0003BFE15200721FFF745FE14491820FFF733FE18200721FFF73DFE20461049FFF72BFE20460721FFF735FE28460D49FFF723FE28460721BDE8F840FFF72BBE00BF53
:40110000A54300409443004012600040F8510040846000400B180000091800005D160000A1170000D5170000184B012210B51A70174B4FF400041C604FF080741C601A6093
:4011400002221A60134B00241C70134B01B103221A70124B124A187000231370114A01201370114A1370114A1370114A1370114A1370114B03221A70802203F8202CFFF7BC
:40118000AFFC0E4B04221A7010BD00BFE681FF1F00E100E05881FF1F096000406281FF1F6A81FF1F5981FF1F6581FF1F6381FF1F7981FF1F5A81FF1F286000401260004076
:4011C00070B5074C064623780D461BB9FFF722FF0123237030462946BDE87040FFF7A4BF5181FF1F0C4B01221A700C4A002313700B4A13700B4A13700B4A13700B4A1370B8
:401200000B4A13700B4A13700B4B03221A70802203F8202C704700BFE681FF1F5881FF1F6A81FF1F5981FF1F6581FF1F6381FF1F7981FF1F5A81FF1F28600040014B187862
:40124000704700BF6A81FF1F044B1A7802F0FF001AB118780022C0B21A7070476581FF1F024B0C2202FB0030407870477A81FF1F0138C3B2072B0CD8074A1B01DBB2985C07
:4012800001329B5C00F00F0043EA0020023880B270470020704700BF0C600040431EDBB2072BF0B52FD8184E0C2404FB0064E7881B01BFB2154DC7F50077DBB2BA421D4413
:4012C00003D9E288C2F5007292B20C2404FB0064E7780F4C47EA12271F55D7B201341F5549B90C2202FB0060002242704179094AC9B29954F0BD0024A7B29742F1D20F5DD6
:4013000001342F70F8E7F0BD7A81FF1F886000400C6000400E600040431EDBB2072B0BD8064A0C2101FB00200022427041791B01034ADBB2C9B29954704700BF7A81FF1F9B
:401340000E600040F8B5431EDBB2072B07460D46144616D8B9B11B010C4EDBB21E44FFF787FFA04228BF204684B200239AB2A24203D23278EA540133F8E73846FFF7CCFFF8
:4013800002E0002400E00C462046F8BD8860004030B51A4B1A481A8801780A4492B219491A80194BCAB21C88A4B284B1174A91420CD05A681278D2B201F8012B5A68013254
:4013C0005A601A88013A92B21A80EAE7082203780F4C082B0F4B00D042B10F490D7885F080050D700F212170022101E00221217019700A4B02701A7030BD00BF6881FF1FFD
:401400005A81FF1F006000406C81FF1F086000406181FF1F5881FF1F6481FF1F7881FF1F074B02221A70074B80221A70064B0F221A70064A00231370054A01201370704725
:401440005881FF1F6481FF1F6181FF1F5A81FF1F7881FF1F10B5154B1A78154B02F00F021988023AD2B2114489B219801149124B188880B278B172B1586811F8014B013A99
:40148000E4B204705868D2B2013058601888013880B21880EBE7094B1A70094B1A7882F080021A70074B0B221A7010BD296000406881FF1F006000406C81FF1F7881FF1FD6
:4014C0006481FF1F6181FF1F064A06231370064A01201370054B80221A70054B00221A70704700BF5881FF1F6181FF1F6481FF1F7881FF1F054B9A683AB19A6804491070EE
:401500009A680988518000229A6070476C81FF1F6881FF1F08B5124B1A78D2B21A701B78DBB21A0602D50F4A137008BD0220FFF7E1FF0D4B1B7803F06003202B05D0402B2C
:4015400006D043B900F0C4FC04E000F013FE01E000F004FE10B9034B03221A7008BD00BF286000406181FF1F0060004008B50849084B01201A8809780A4492B21A80064B5D
:4015800000221A70FFF7B6FF044B03221A7008BD5A81FF1F6881FF1F5881FF1F6181FF1F08B50C4B1B78DBB2042B07D0062B09D0022B0DD1BDE80840FFF7D8BFBDE8084064
:4015C000FFF748BF0320FFF795FF034B03221A7008BD00BF5881FF1F6181FF1F08B5054B002201201A70FFF785FF034B03221A7008BD00BF5881FF1F6181FF1F08B50A4BEB
:401600001A7832B11978094A41F08001117000221A70074B002201201A70FFF76BFF054B03221A7008BD00BF6381FF1F086000405881FF1F6181FF1F074B1B78DBB2042B2E
:4016400005D0062B05D0022B05D1FFF7A1BEFFF7C5BFFFF7D3BF70475881FF1F10B51D4C2378DBB2DA0633D518060AD503F00F03012B2DD1FFF74EFF174B1B78190609D5E8
:4016800010BD5A0602D5FFF7D7FF03E09B061FD5FFF786FF23781B061AD4104B104A1B78127813430F4A13701278934210D10A4B08491A782078D2B2000605D41A78D2B230
:4016C0000A700A7802F00F021B789A42EFD110BD10BD00BF286000406181FF1F6481FF1F7881FF1F29600040054A00231380054A916819B191680B7092685380704700BFEA
:401700006881FF1F6C81FF1F10B50F4C23889BB213B9FFF785FE14E00C4B02221A700C4B00221A70FFF7E0FF0A4B1A78013B1B7843EA0223228892B29A4288BF2380FFF7B7
:4017400027FE012010BD00BF6C81FF1F5881FF1F6481FF1F0760004008B50C4B04221A700B4B80221A70FFF7BFFF0A4B01201A78013B1B7843EA0222074B198889B29142C8
:4017800088BF1A80054B0B221A7008BD5881FF1F6481FF1F076000406C81FF1F6181FF1F094B1B78094B1A7B02F00302012A03D0DA7B82F08002DA7301225A73044B1A78A4
:4017C00002F0FE021A7070470E6000407A81FF1F0B600040094B1B78094B1A7E02F00302012A03D0DA7E82F08002DA7601225A76044B1A7802F0FD021A7070471E6000401C
:401800007A81FF1F0B6000407047FFF7EBBC000008B50C4B18780138C0B200F07BF90A4B0A491B78DBB200EBC3004269CB5C02EBC3035B685A6A064B1178C9B219805A60B3
:4018400008BD00BF6A81FF1F046000406081FF1F6C81FF1F08B50D4B18780138C0B200F059F90B4B0B491B78DBB200EBC3004269CB5C02EBC3035B68DB69597813F8022B8E
:4018800042EA0121044A1180536008BD6A81FF1F046000406081FF1F6C81FF1F10B5194C00232380184B18780138C0B200F032F9164B174A1B781278DBB2D2B200EBC20086
:4018C0004169EAB9134A127801EBC20251685A1E022A15D8104A03F10053013B127801EBC30011F83330D2B2934209D30C235A4341688B1858688A5A9B6860602280A360DF
:4019000010BD00BF6C81FF1F6A81FF1F03600040046000406081FF1F0260004010B53C4B3C4A1B781178DBB2090634D501321278013A052A6AD8DFE802F010182769690346
:40194000354B1A78212A02D1FFF762FF07E01B78222B5BD1FFF77EFF01E0FFF79FFF2F4B1B889BB2002B51D00AE0002B4ED12C4B1B78002B4AD1294B01221A80294A5A606D
:40198000BDE81040FFF7C0BE002B3FD1234B01221A80254AF3E71278120637D4234A1278D2B20A2A0DD00B2A27D0092A2ED1FFF775FF1A4B1B889BB243B3BDE81040FFF7D8
:4019C000CBBE1BBB164B1B7803F0FF01F3B9124B144A1B78DBB21370154B14781878844201D2197005E01978012902D91278D2B21A70BDE81040FFF767BD3BB9084B1A78FE
:401A0000012A03D81A78084BD2B2F1E7002010BD0460004000600040036000406C81FF1F02600040E781FF1FE681FF1F01600040E881FF1F7FB5144B02466D4603F1100613
:401A4000186859682C4603C40833B3422546F7D1BAB122231370032353700C4B13F8011B04ACC9B204EB111001F00F01214411F8101C10F8100C907002F8041F04498B42BE
:401A8000ECD104B070BD00BF50250000000100490801004930B51C4B01211C4A0C2000FB012483F87200657925B12479240658BF082000E0802018700C2000FB0122108906
:401AC0000131C0F3072003F8020C10890929C0B203F8010CD08803F11003C0B283F86800D088C0F3072083F86900D088C0B283F86600D288C2F3072283F86720CDD1044BF0
:401B0000FF221A7030BD00BF0E6000407A81FF1F0A600040074B1A78074B03EBC2035B6803F108021B7A834286BF02EBC0004068002070476281FF1F64250000F8B5394BAD
:401B40001A78002A6CD018780138C0B2FFF7E2FFC368047A083303EBC404A34260D013F8082C314931488D5C805C854256D0895C13F8070C884251D12D4909788A424DD1F8
:401B800013F8060C13F8056C00F07F02511E10F0800F28484FEA01114FF00C05C9B206F0030605FB020506D00127BE426F7014BF0D26072605E00027012E6F7014BF092665
:401BC00005266E711C4D01266E540C25554333F8046C4219168113F8066C167113F8056C46550020D07015891448C5F30725455415890130EDB24554D5887930EDB24554FC
:401C0000D5880130C5F307254554D5880338EDB24554D2880130C2F30722425408339CE7F8BD00BF6A81FF1F6081FF1F6B81FF1F046000407A81FF1F0E6000400C6000406F
:401C400008B5064B18780138C0B2FFF763FF20B143681B7900EBC300406908BD6A81FF1FF8B500210C254D434C4C0131002362190929635593705370D37053711381937247
:401C8000F0D118B1464A1370464A1370464B1A78002A00F0818018780138C0B2FFF73AFF4368017ADB79C90013F0400F3F4B1A7814BF42F0010202F0FE021A700122C36849
:401CC000083303EB010E73453DD013F8065C05F07F06B24235D10C2606FB0246B6F808C033F8047C1FFA8CFCBC4538BF378113F8086C2B4FBE5D13F8077CB74221D113F881
:401D0000056C15F0800F4FF00C0506F0030605FB024506D00127BE426F7014BF0D26072605E00027012E6F7014BF092605266E710C25554313F8067C6619377113F8056CD9
:401D400066550833BFE70132092AB8D1C36803F10802114408338B420AD013F8062C0C2502F07F0205FB024213F8080C9072F1E7FFF766FF0E4B0022186001230C2101FBBF
:401D80000341CA80098901330A44092B92B2F5D1BDE8F840FFF77EBEF8BD00BF7A81FF1F6081FF1F6B81FF1F6A81FF1F7981FF1F5C81FF1F114B197801F07F014A1ED2B238
:401DC000072A19D80E4B0C2000FB01339978120141F0010199700021D9705978D2B241F0020159701B7913F0800F064B14BF8D218921D154FFF768BB002070470460004096
:401E00007A81FF1F0E60004010B51A4B1B7803F07F035A1ED2B2072A29D817490C2000FB03139978120101F0FE0199700021D9701249D2B2545C04F07F045454597801F0E7
:401E4000FD01597019795B7811F0800F0C4905D0012B01D1505406E00D2303E0012B0CBF082309235354BDE81040FFF72DBB002010BD00BF046000407A81FF1F0C60004004
:401E80000E60004010B50D4B1C780D4BE4B218780138C0B2FFF73EFE43681B79A3420BD954B9084B084A19780120C9B21170074A1278D2B21A7010BD002010BD04600040B9
:401EC0006A81FF1F6081FF1F6B81FF1F0260004038B58D4C002323808C4B1A7812F0800F8B4A127800F08A800A2A00F20A81DFE812F05A00080108010801080108010B0043
:401F000008017A0008017E00824B1A78012A09D1814B1A78814B03EBC2035B685B686360122311E01A78022A13D17D4B1878FFF7F1FD002800F0E580436863606368DA7801
:401F400063689B7843EA02232380BDE83840FFF7DBBB1B78032B22D1724B00227049D0B20D78854202D80A783AB910E0187801320028F8D019780B44F0E7694A6A49127832
:401F8000097C914203D16948FFF754FD674B1A78002A00F0B6801A78D2B2228019E0BDE8384000F0E7B81A7812F0030213D0022A40F0A7805E4B22801B785E4A03F07F0312
:401FC0000C2101FB03239A785B4BD2B21A7000225A706360B9E702232380584B1978564BC9B21970F4E701232380554BF1E7012323804F4B534A1B781344EAE7013A0A2A9A
:402000007FD8DFE802F0367E527E067E7E7E0B7E2200434B1A784C4BD2B260E0404B1B7803F0FF0453B9464B1A78944265D01C70464B01201870FFF713FE5EE0601EC0B21D
:40204000FFF768FD0028EED15BE0FFF71BFF002857D0374B01221C783D4BE4B21C703B4B1A70FFF76BFD374B1A5D3A4BD2B21A5543E01B7803F00303012B32D00CD3022BD9
:402080003FD103F1804303F5C0431B78002B38D1BDE83840FFF7B8BE214B1B78012B30D1264B1A7802F0FD0219E01B7803F00303012B16D00BD3022B23D103F1804303F5A9
:4020C000C0431B78EBB9BDE83840FFF773BE144B1B78012B15D1194B1A7842F002021A700BE0134B1A7862B91B781B4A0C48DBB2D15C007821EA0001D154BDE83840FFF7F0
:40210000E3B9002038BD00BF6C81FF1F0060004001600040036000406281FF1F64250000026000402A260000782600003082FF1F046000407A81FF1F5281FF1F7981FF1F90
:402140006A81FF1F6081FF1F6381FF1F6581FF1F5981FF1F6B81FF1F6681FF1F034B00201B781B0644BF024B1B7870470060004001600040104B1B7803F00303012B0CD05E
:40218000022B0ED10D4B0E4A1B780C2103F07F0301FB032308339B7801E0084B1B78DBB200E00023074A1268D35C032B01D1FFF7B5BB0020704700BF00600040046000402D
:4021C0007A81FF1F5C81FF1F70B50E4B0E4D0024ED1AAD101E46AC4204D056F8242090470134F8E700F052FA084D094B0024ED1AAD101E46AC4204D056F8242090470134D6
:40220000F8E770BD9826000098260000A02600009826000010B50023934203D0CC5CC4540133F9E710BD02440346934202D003F8011BFAE770470000E0260000F100000005
:40224000000000004D6F6E61736820476C6F6D657269646100426F6F746C6F61646572205265616479000000004F00400C001051004030000000014000100014014000080A
:4022800000400140000A004C01400002005001402000000001450040024F0040095200400165004004000140010101400203014001050140040701400808014015090140EA
:4022C000040B0140030D01400215014004170140061901402E1A0140251B0140074001400B4101400E4201400C430140044401400345014001460140044701400D4801402D
:4023000005490140054C01400E4D014002500140015101407E0201200A4B008001C02003210129803110608061847C407B0138083E0458045F011B04AB04E202E609E20195
:40234000E602E804EE045B045F01AE01B401D804DB04DC08DF11100219101A0459506D806E086F8877067A08830487089F02A002A208A540A604A780AA0CC401D60CDE0492
:4023800083028780A002A5408540A002B002E201EC80E408E810EA02EE0A86109D40A208AE04E810EE0A0501070209020B0115022E01330336013920580459045C385F112C
:4023C00080048504860C870888088A048B088C028E019003940195089602970499019B029D019F02A408AD03B203B50CB60CB703B888B980BE04BF40D804D904DB04DC3344
:40240000DF01041505800E601002170819401C011F0420142580270C2E40330435803610370838143C146E407A088001858088028B0499809D40A218B180C0F0C230C42128
:40244000CA10CC72CE66DE04E402EC803381364057085F80CC70D440D6206008642087809F81A280A640A788AA80D8C0E240EE20108050046280800484209C289F01A2807E
:40248000A640A788C410D420D640E6901810814087089F01A640A788A888C610E280E640E820EE2008046080C208D8029C80B004EE019C8008080F409C80C20C21042610D3
:4024C000514086109180AE40AF81B410C860D420E410EA40EE5079808140B104DC80E2809880AC08AF40B480E8080C80608063027404840488808B019880C201D602D8024C
:40250000DE04E001E60110081C08003AC00000C0C000C00000008C00000C8C008C0000000800000808000800C00003000003030003000000200080802000A00000001010DF
:4025400000001000000000006980172E001E01013031323334353637383941424344454600000000010000006C2500000100000078260000010000007C2500000100000087
:402580004F260000020000009E25000001000000B0250000000000009C250000030000000103400003000000820340000300000001000000B825000000000000EC25000049
:4025C00000000000E0250000000000000000000001000000F8250000010000006126000041000000EA81FF1F5282FF1F410000005682FF1F2C82FF1F240005010900A1009D
:402600000900A1000900150025FF7508954091020900150025FF750895408102C0C000000A033000300030003100040309040A03500053006F004300160342006F006F00B5
:4026400074006C006F0061006400650072000009022900010102803209040000020300000209211101000122240007050103400001070582034000011201000200000008AE
:40268000B4041DB70130010280010000F8B500BFF8BC08BC9E4670475100000041010000F8B500BFF8BC08BC9E4670472D000000C02600000881FF1F2000000070010000FD
:4026C00000000000382200003C2200000000007D00FA0000400000000090D00300000000000000000000000000000000000000000000000000000000000000000000000008
:4027000000800020112700007D2800007D28000008B500F0CDF800BF10B5054C237833B9044B13B10448AFF300800123237010BD9081FF1F000000008439000008B5064BAA
:402740001BB106480649AFF300800648036813B1054B03B1984708BD00000000843900009481FF1F0881FF1F0000000008B500F089FBD0F1010038BF002000F077FB08BDE1
:4027800008B500F093FBD0F1010038BF002000F081FB08BD10B50C2001F076F8064C206000F066F820600020014600F03DFC034800F0CCFB10BD00BFD081FF1F8839000096
:4027C00008B562B60B4800F067FC0B4800F08CFC00F0F6FC00F01AFC00F036FD4FF4FA7000F0F8FAFFF7D6FF4FF47A74204600F0F1FAFBE76D2700008127000008B500F0F1
:4028000019FD00F083FD00F015FD002008BD00BF84B00022114605E0013300E00B46AF2BFADD01328F2AF9DD0022114605E0013300E00B46AF2BFADD01328F2AF9DD0022AA
:40284000114605E0013300E00B46AF2BFADD01328F2AF9DD0022114605E0013300E00B46AF2BFADD01328F2AF9DD019804B0704708B5FFF7C3FFFFF7CBFF08BDFEE700BF6C
:4028800008B5094B1B681844084A821A802A02DC054A106005E000F0CBFF0C2303604FF0FF33184608BD00BF0C81FF1FF047002080B5104F104E002415E031687368B568D1
:4028C000224604E051F8040B43F8040B0432AA42F8D1F168224602E043F8044B04328A42FAD11036013F002FE7D100F0A7FFFFF767FFFEE701000000643D000010B5134AFD
:40290000134B1A6008331A6842F400721A6000231048114C114908E0032B02D854F8232000E0024641F8232001332F2BF4D90C4B1A780C4B1A70094A0B4B1A6000F0C0F89B
:4029400000F066F90022094B1A6010BD0004FA050CED00E07D280000002700000080FF1FBC7600400481FF1F08ED00E00081FF1FFEE700BFF0B400231F4611E050F82760EC
:40298000F2B226F0FF0608E001EB430511F813406D78A5550133013AD2B2002AF4D101371B2FEBD9F0BC7047064B1B78DBB203F00701054A11701B09013213704422034BAC
:4029C0001A707047CF0100496E5800407658004008B50A46002100F068FF08BD08B500F05BFF08BD08B500F057FF08BDF8B500252A4B1D80582202331A70012202331A807C
:402A00001823274A137040F65F1102321180023213700222234B1A7008234FF040221370032102F5007211701F4A1178C9B21F4A1170A2F27F42138041F251221C4B1A80E6
:402A400019241C4F4FF4F0760AE03B7803F0010343EA450505F00305304600F0C5F8013C0CB1032DF1D114B90320FFF781FF124B4FF480721A8007221A7000220F490A70B5
:402A80004820023108701A700222033B1A7003F2A1331A7842F007021A70F8BD80400040864000400043004008010049A14600402042004025420040044000400640004063
:402AC00038B572B60024374D09E004EB44035B002B4418689988FFF77BFF0134E4B2082CF3D9304C04F1380004F1A801FFF742FF2D480421FFF76CFF2C4B1A7842F002029C
:402B00001A7010331A7842F002021A70284D2B7843F040032B70274B1A7842F010021A70254804F52D710822FFF758FF234804F52F710822FFF752FF214804F5317108225D
:402B4000FFF74CFF1F4804F533710A22FFF746FF1D4804F536710822FFF740FF1B4804F538710822FFF73AFF194804F53A710822FFF734FF174B1A7842F008021A70164C73
:402B800061232370FFF732FF812323700122134B1A70FFF709FF124829460E22FFF722FF38BD00BF943900000076004003500140A0430040C243004002510040C25100406E
:402BC000F251004020510040425100405251004062510040224300400048004004000840B0430040000000000230800800F0058000BF013800467FF4FCAF7047EFF3108098
:402C000072B6704780F31088704700BFAFF300800B4A7F2313708021517007E0DA0002F1804202F5F042013BDBB21370002BF5D1DB0003F1804303F5F04300221A7070473A
:402C40001081FF1F172815D831B102010A4BD15C41F02001D15405E00201074BD15C01F0DF01D1540001044BC25C42F00102C25400207047012070471070004017280CD8F3
:402C80000001074BC218117941F004011171C25C42F00102C254002070470120704700BF1070004017280BD80001064BC25C02F0F10201F0070142EA4101C1540020704744
:402CC000012070471070004041F6FF73994201D14FF4005141F6FF739A4201D14FF40052172808D8C00000F1804000F5EC408180C280002070470120704700BF172805D8E8
:402D0000034B03EB0010417200207047012070471070004010B417281AD8C40004F1804404F5EC44D201D2B201F07F01114321709DF804201201D2B203F00F03134363705F
:402D40009DF8083003F00F03A3700020E07000E001205DF8044B704710B5FFF74FFF0A4B5B78182B0BD9084A1478013B5370E30003F1804303F5F0431B78137000E0FF248F
:402D8000FFF740FF204610BD1081FF1F10F0800F0CD111F4704F0BD1C00000F1804000F5F04001808270C37000207047012070470120704710F0800F08D1C00000F1804054
:402DC00000F5F0408180C280002070470120704701BE704738B50446084D04E02868FFF703FFA4F50044B4F5004FF7D8034B586800FB04F0FFF7F8FE38BD00BF1881FF1F56
:402E000008B5034B1B7A03FB00F0FFF7EDFE08BD1881FF1F70B505460E46074B1C681F2802D90020FFF7D4FF05F01F05103554F8250044F8256070BD08ED00E038B5054638
:402E40000C46072902D90020FFF7C2FF1F2D02D90020FFF7BDFF05F01F0000F1604000F564406401E4B2047038BD00BF044B1A7802F0EF02000100F0100002431A70704779
:402E800050510040024B1878C0F30010704700BF51510040044B1A7802F0DF02400100F0200002431A70704750510040024B1878C0F34010704700BF5151004010B50B4C79
:402EC000237803F09F032370237803F0F00323702378184340F0100323700120FFF790FF237803F0EF03237010BD00BF7B64004010B50D4C237843F020032370237803F09B
:402F0000BF032370237803F0F00323702378184340F0100323700120FFF772FF237803F0EF03237010BD00BF7B64004010B504460009FFF7DDFF6420FFF762FF04F00F004E
:402F4000FFF7D6FF9620FFF75BFF10BD38B505460078012404E0FFF7E9FF285D0134E4B20028F8D138BD00BF10B504460009FFF7A5FF6420FFF744FF04F00F00FFF79EFF22
:402F800040F6C410FFF73CFF10BD00BF08B52820FFF720FF0320FFF791FF0520FFF71AFF0320FFF78BFF0F20FFF714FF0320FFF785FF0120FFF70EFF0220FFF77FFF0520FC
:402FC000FFF708FF0620FFF7CFFF0E20FFF7CCFF2C20FFF7C9FF0820FFF7C6FF0120FFF7C3FF0C20FFF7C0FF0320FFF7BDFF0520FFF7F0FE08BD00BF08B50C20FFF7B4FF60
:403000000122014B1A7008BDAC81FF1F08B5054B5B7823B9FFF7BAFF0122024B5A70FFF7EBFF08BDAC81FF1F08B5032819D8DFE800F002070D1381F08000FFF795FF08BDF9
:40304000A1F14000C0B2FFF78FFF08BDA1F16C00C0B2FFF789FF08BDA1F12C00C0B2FFF783FF08BD014B1B681864704708ED00E04001C0B2014B1870704700BF00E400E00B
:403080000122014B1A60704700E100E00122014B1A60704780E100E010B50446FFF7F6FF2046FFF7DFFF0720FFF7E2FFFFF7E8FF10BD00BF014B1B685864704708ED00E01C
:4030C0004001C0B2014B1870704700BF01E400E00222014B1A60704700E100E00222014B1A60704780E100E010B50446FFF7F6FF2046FFF7DFFF0720FFF7E2FFFFF7E8FFBB
:4031000010BD00BF084B1A7842F001021A7010331A7842F001021A7003F64D331A7842F001021A70704700BFA3430040014B1880704700BF044F0040014B1880704700BF1E
:40314000064F0040014B1870704700BF034F004008B5194B1A7842F002021A7002331A7802F08F0242F030021A7009331A7802F0CF021A701A7842F030021A701A7802F014
:40318000F0021A701A7842F00F021A704FF6FF70FFF7CCFF0120FFF7CFFF0020FFF7D2FF064B1A7842F001021A7003F65E331A7842F001021A7008BD004F0040A3430040FC
:4031C00008B5054B1B7823B9FFF7C2FF0122024B1A70FFF797FF08BDAE81FF1F10B5094B1A781A781A781B78074C2078FFF746FD20782179FFF782FD20780121FFF722FD08
:4032000010BD00BF4A640040B081FF1FF8B507460E46302500242846214600F081FA0028F9D1384600F0D8FA304600F0D5FA00F0B7FAF8BD08B500F095F80028FBD100F0E3
:4032400091F80028FBD008BDF8B5042000F092F8042000F09BF800F0EBF812208021FFF7D5FF0120FFF7B6FD0024234D06E005EB44035978FFF7CAFF0134A4B215F81400F4
:40328000FF28F4D100241D4D1D4E04E0315DFFF7BDFF0134A4B2285DFF28F7D1012001464FF4804241F6FF7300F03EF8154B187000241D464FF44666134F14E0FFF74CFDD7
:4032C0002B19187106FB047246F24A4192B2FFF771FD34B12A19D078314612790223FFF755FD0134A4B20F2CE8D9064B18780021FFF7D8FCF8BD00BFD03C0000C03C000071
:40330000843C0000B081FF1FD481FF1F08B5054BD87C4FF44661FE220223FFF737FDFFF75DFF08BDB081FF1FF0B583B086460F4616461D460A4C00232370009301931846A2
:4033400071463A46FFF7E6FC207831462A46FFF7BBFC20780221FFF7A5FC207803B0F0BD2881FF1F024B1878C0F38000704700BF21510040044B1A7802F0F10200F00E0005
:4033800002431A70704700BF15500040044B1A7802F0F10200F00E0002431A70704700BF1450004010B50222114B1A7081220E3B1A70082202331A70042211331A70002430
:4033C00001331C704FF400420A4B1A600F200721FFF734FD0F200849FFF71CFD1022074B1A70074B1C70074B1C70074B1C7010BDD649004080E100E059340000D4470020CF
:40340000E8470020D9470020E047002008B5FFF7F5FB064B1A7842F004021A7010331A7842F004021A70FFF7EDFB08BDA543004008B5074B1B7823B9FFF7B4FF0122044B73
:403440001A70FFF7E3FF4FF40042024B1A6008BDC481FF1F00E100E038B5A44B1C78E4B2A34B1B7813F0400F00F0378114F0010F00F01B819E4B1B78453B052B00F21281E3
:40348000DFE813F006008200100110010600DE0004F0DF0504F00A04082C42D1944B1B78DBB2452B35D1934B1B7813F0FF0F10D0914B1B681A78D2B2904B1A700422013B80
:4034C0001A7001228E4B1A704622894B1A702C46EBE08C4B1B7813F0020F0DD08A4B1A7842F00A021A706022814B1A704FF40042864B1A602C46D8E0854B1A7842F01002B7
:403500001A70102203331A700422023B1A702C46CBE00022754B1A704A22754B1A702C46C3E00A2C2BD1784B1A7842F0A0021A70744B1B7813F0020F14D06D4B1B7813F051
:40354000080F01D0092100E00A216F4B1A780A431A706022664B1A704FF400426B4B1A602C46A2E06A4B1A7842F010021A70102203331A700422023B1A702C4695E00020AA
:40358000FFF726FC2C4690E014F0020F35D15C4B1A78584B1B78D2B29A4210D2584B1A78D2B255490968895CC9B2544A11700421013A11701A780132D2B21A7075E0514B59
:4035C0001B7813F0020F0CD04F4B1A7842F00A021A706022464B1A704FF400424B4B1A6063E04B4B1A7842F010021A70102203331A700422023B1A7057E0424B1B7813F0B0
:40360000020F0CD0404B1A7842F09A021A706022374B1A704FF400423C4B1A6045E03C4B1A7842F010021A70102203331A700422023B1A70344B1A7842F090021A7034E0B6
:40364000344B1A78D2B2344909682C480078C0B288541A780132D2B21A701A782F4B1B78D2B29A4203D21022204B1A701DE0254B1B7813F0020F0CD0234B1A7842F0090292
:403680001A7060221A4B1A704FF400421F4B1A600BE01F4B1A7842F010021A70002201331A7002E00020FFF793FB14F0200F1CD00F4B1B7813F0080F01D0012200E002226D
:4036C000114B19780A431A70114B1A7802F0EF021A701022064B1A7038BD054B1B7813F0100F02D11022024B1A7038BDD7490040D4470020D8470020DC470020D849004055
:40370000E0470020DB470020E847002080E100E0D6490040D9470020E4470020DA4700201A4B1B78DBB2102B29D1194B1B7813F0080F26D14FF40042164B1A604000C0B271
:4037400029B140F001004922104B1A7002E045220E4B1A70104B1870012201331A700F4A137813F0010FFBD00C4B1B7803F00A030A2B08D11022054B1A700320704702203C
:403780007047012070470020704700BFD4470020D949004080E100E0D8490040D74900400A4B1B7813F0040F0ED01023074A13700421023A1170064A1370064A137813F0CF
:4037C000210FFBD00020704702207047D9490040D4470020D7490040114B1B7813F0040F1BD0104B18700422013B1A7046220E4B1A700E4A137813F0010FFBD00B4B1B786D
:4038000013F0020F04D16022074B1A70002070476022054B1A70032070470220704700BFD9490040D8490040D4470020D7490040014B1868704700BF8C81FF1F70B50E4B53
:403840000E4D0024ED1AAD101E46AC4204D056F8242090470134F8E700F072FA084D094B0024ED1AAD101E46AC4204D056F8242090470134F8E770BD4C3D00004C3D000093
:40388000543D00004C3D0000024B0146186800F015B800BF8C81FF1F10B50023934203D0CC5CC4540133F9E710BD02440346934202D003F8011BFAE77047000070B5CD1C8F
:4038C00025F0030508350C2D38BF0C25002D06463FDB8D423DD3214B1C6818462146A1B10B685B1B0ED40B2B03D90B60CC18CD501FE08C4202D1626802601AE04B6863600F
:403900000C4616E00C464968E9E7154C23681BB9304600F027F820602946304600F022F8431C014615D0C41C24F0030484420AD1256004F10B00231D20F00700C31A0BD0FD
:403940005A42E25070BD3046611A00F00BF80130EED10C233360002070BD00BFCC81FF1FC881FF1F38B5064C0023054608462360FEF786FF431C02D1236803B12B6038BDEF
:40398000EC4700200000000072657475726E656400000000C84900401900004F00400C0010510040100030510040100000000140001000140140000800400140000A004C3F
:4039C000014000020050014020000000024F00400C5200400403014003050140040601400407014006090140130A0140240B01400E0D0140020F01400115014002170140FF
:403A000003190140031B01400E40014011410140104201400D4301400A440140104501400B460140094701400948014005490140104C0140084D01400351014001100A2711
:403A400001801120143020012103298030103110600C610478087918E202E807EC04EE02E008E207E60DB902BF01D904DF0121028102E401EE029D08A920AD80B502E4019E
:403A8000EA04420147E0482049FF4AFF4BFF4F835A045B045D085F118602AE01B201B602D804DB04DC08DF31050816021D801F084002520159025B94612262886D806E2402
:403AC0006F807604770279207F4082058382861487409120980299029A029B94A288A540A708B002C020C480D008D60FD80FDE84828085408608912099029A029B94A70839
:403B0000A902AB14AF88B202E208E6048510E202EA01E440E8109D08E440E81089089D08EA010A100B020E400F04301036203F8059405F80C2F0CC30CE20D480D6205B0163
:403B4000630887809C109D409F80A740AA50AB01AE20AF04D640D840E240E8E0EC20EE4013083E1057108374854087099C109D409F01A744C410CE20D440E010E2E0E6B07D
:403B8000181019046B808104838096109B20AC10C610DC20E280E480EE400108020105800780080865208780C00FC208D801000808010D025B0860208108858099889A01F7
:403BC0009D20B008C008C20CD602D802EA01040198019A019C209D209F08A110B004B512C004EA04812098019C209D209F08A110AA01B401EE08240427805F208C04961001
:403C00009B20B410C8A0D62077809B80AA10DE20EA8013281420700278017D208C0298819C209F08A110B480C40EDC01DE03E402E8080C40608088409880AB20C201D802B3
:403C4000E201000F03C0100100C0C000C0000000008C8C000C00000020181800180000003000050A3A00300000000000F00303000300000180F07000800000001F10000080
:403C8000100000000804802880ED0024369112432004802880ED00243691124310048026C6ED001E3691124340048026C6ED013D009112430000001DBDBF01811281935120
:403CC000120C0D171832191A03373839FF00000009100E00090115003FA641004208160633C034BFA88096048E003C778B0635919488958840C1292F0F4313E03D506980FC
:403D00005C965D965E1059EB5A9C5B5543F0441045554686476448865FE0608C6120A5D9A4748D0213E78C23A9B8AA92AB0A8FDF900091009F00A000143AFFFF43000000B7
:403D4000F8B500BFF8BC08BC9E4670473D270000FD280000F8B500BFF8BC08BC9E46704719270000783D00000881FF1F8800000060C600000000000000000000F04700201B
:403D80007F800000010000000000E02EC05D00001800000000366E01FF00000000000000000000000000000000000000000000000000000000000000000000003C3D0000A3
:403DC0000000000000000000000000000000000000000000000000000000000000000000000000000000000000000000000000000000000000000000000000002C81FF1FF8
:403E00000000000000000000000000000000000000000000000000000000000000000000000000000000000000000000000000000000000000000000000000000000000082
:403E40000000000000000000000000000000000000000000000000000000000000000000000000000000000000000000000000000000000000000000000000000000000042
:403E80000000000000000000000000000000000000000000000000000000000000000000000000000000000000000000000000000000000000000000000000000000000002
:403EC00000000000000000000000000000000000000000000000000000000000000000000000000000000000000000000000000000000000000000000000000000000000C2
:020000040003F7
:40FFC00095112700002600000000170000000000000000000000000000000000000000000000000000000000000000000000000000000000000000000000000000000000F7
:0200000490006A
:040000000000400FAD
:0200000490105A
:04000000BC90ACAF55
:0200000490303A
:02000000407549
:0200000490402A
:4000000000000000000000000000000000000000000000000000000000000000000000000000000000000000000000000000000000000000000000000000000000000000C0
:400040000000000000000000000000000000000000000000000000000000000000000000000000000000000000000000000000000000000000000000000000000000000080
:400080000000000000000000000000000000000000000000000000000000000000000000000000000000000000000000000000000000000000000000000000000000000040
:4000C0000000000000000000000000000000000000000000000000000000000000000000000000000000000000000000000000000000000000000000000000000000000000
:0200000490501A
:0C00000000012E17806900012E2DC0DECB
:00000001FF